{
  "contractName": "AuctionStore",
  "abi": [
    {
      "inputs": [],
      "stateMutability": "nonpayable",
      "type": "constructor"
    },
    {
      "inputs": [],
      "name": "productIndex",
      "outputs": [
        {
          "internalType": "uint256",
          "name": "",
          "type": "uint256"
        }
      ],
      "stateMutability": "view",
      "type": "function"
    },
    {
      "inputs": [
        {
          "internalType": "string",
          "name": "_name",
          "type": "string"
        },
        {
          "internalType": "string",
          "name": "_category",
          "type": "string"
        },
        {
          "internalType": "uint256",
          "name": "_startPrice",
          "type": "uint256"
        }
      ],
      "name": "addProductToStore",
      "outputs": [
        {
          "internalType": "bool",
          "name": "",
          "type": "bool"
        }
      ],
      "stateMutability": "nonpayable",
      "type": "function"
    },
    {
      "inputs": [
        {
          "internalType": "uint256",
          "name": "_productId",
          "type": "uint256"
        }
      ],
      "name": "getProduct",
      "outputs": [
        {
          "internalType": "uint256",
          "name": "",
          "type": "uint256"
        },
        {
          "internalType": "string",
          "name": "",
          "type": "string"
        },
        {
          "internalType": "string",
          "name": "",
          "type": "string"
        },
        {
          "internalType": "uint256",
          "name": "",
          "type": "uint256"
        },
        {
          "internalType": "address",
          "name": "",
          "type": "address"
        },
        {
          "internalType": "bool",
          "name": "",
          "type": "bool"
        }
      ],
      "stateMutability": "view",
      "type": "function"
    },
    {
      "inputs": [
        {
          "internalType": "uint256",
          "name": "id",
          "type": "uint256"
        },
        {
          "internalType": "uint256",
          "name": "_timeLimit",
          "type": "uint256"
        }
      ],
      "name": "setAuctionStart",
      "outputs": [
        {
          "internalType": "bool",
          "name": "",
          "type": "bool"
        }
      ],
      "stateMutability": "nonpayable",
      "type": "function"
    },
    {
      "inputs": [
        {
          "internalType": "uint256",
          "name": "id",
          "type": "uint256"
        }
      ],
      "name": "tobid",
      "outputs": [],
      "stateMutability": "payable",
      "type": "function"
    },
    {
      "inputs": [
        {
          "internalType": "uint256",
          "name": "id",
          "type": "uint256"
        }
      ],
      "name": "setAuctionEnd",
      "outputs": [],
      "stateMutability": "nonpayable",
      "type": "function"
    },
    {
      "inputs": [
        {
          "internalType": "address",
          "name": "addr",
          "type": "address"
        }
      ],
      "name": "getBalance",
      "outputs": [
        {
          "internalType": "uint256",
          "name": "",
          "type": "uint256"
        }
      ],
      "stateMutability": "view",
      "type": "function"
    },
    {
      "inputs": [],
      "name": "queryBalance",
      "outputs": [
        {
          "internalType": "uint256",
          "name": "",
          "type": "uint256"
        }
      ],
      "stateMutability": "view",
      "type": "function"
    },
    {
      "inputs": [
        {
          "internalType": "uint256",
          "name": "id",
          "type": "uint256"
        }
      ],
      "name": "highestBidderInfo",
      "outputs": [
        {
          "internalType": "address",
          "name": "",
          "type": "address"
        },
        {
          "internalType": "uint256",
          "name": "",
          "type": "uint256"
        }
      ],
      "stateMutability": "payable",
      "type": "function"
    },
    {
      "inputs": [
        {
          "internalType": "uint256",
          "name": "id",
          "type": "uint256"
        }
      ],
      "name": "totalBids",
      "outputs": [
        {
          "internalType": "uint256",
          "name": "",
          "type": "uint256"
        }
      ],
      "stateMutability": "view",
      "type": "function"
    }
  ],
  "bytecode": "0x608060405234801561001057600080fd5b5060006001819055506116de806100286000396000f3fe6080604052600436106100915760003560e01c8063c897d5a611610059578063c897d5a6146101a6578063ce818ea9146101d1578063dea7de4a14610202578063f0a7ae7d1461023f578063f8b2cb4f1461025b57610091565b806328e3d1901461009657806336f40c61146100d3578063738ce0ca146100fe578063aa9bc5c114610127578063b9db15b414610164575b600080fd5b3480156100a257600080fd5b506100bd60048036038101906100b89190610e0a565b610298565b6040516100ca9190610e46565b60405180910390f35b3480156100df57600080fd5b506100e86102b8565b6040516100f59190610e46565b60405180910390f35b34801561010a57600080fd5b5061012560048036038101906101209190610e0a565b6102c0565b005b34801561013357600080fd5b5061014e60048036038101906101499190610fa7565b6104ac565b60405161015b919061104d565b60405180910390f35b34801561017057600080fd5b5061018b60048036038101906101869190610e0a565b6105d8565b60405161019d96959493929190611131565b60405180910390f35b3480156101b257600080fd5b506101bb6107e1565b6040516101c89190610e46565b60405180910390f35b6101eb60048036038101906101e69190610e0a565b6107e7565b6040516101f99291906111a0565b60405180910390f35b34801561020e57600080fd5b50610229600480360381019061022491906111c9565b610861565b604051610236919061104d565b60405180910390f35b61025960048036038101906102549190610e0a565b6109e5565b005b34801561026757600080fd5b50610282600480360381019061027d9190611235565b610cfc565b60405161028f9190610e46565b60405180910390f35b600060026000838152602001908152602001600020600901549050919050565b600047905090565b6002600082815260200190815260200160002060030154421015610319576040517f08c379a0000000000000000000000000000000000000000000000000000000008152600401610310906112ae565b60405180910390fd5b60016002600083815260200190815260200160002060060160146101000a81548160ff0219169083151502179055610386576040517f08c379a000000000000000000000000000000000000000000000000000000000815260040161037d9061131a565b60405180910390fd5b60006002600083815260200190815260200160002060060160146101000a81548160ff0219169083151502179055506000600260008381526020019081526020016000206003018190555060006002600083815260200190815260200160002060040181905550600260008281526020019081526020016000206008015460026000838152602001908152602001600020600501819055506002600082815260200190815260200160002060070160009054906101000a900473ffffffffffffffffffffffffffffffffffffffff166002600083815260200190815260200160002060060160006101000a81548173ffffffffffffffffffffffffffffffffffffffff021916908373ffffffffffffffffffffffffffffffffffffffff16021790555050565b60008060026000600154815260200190815260200160002090506001548160000181905550848160010190805190602001906104e9929190610d1d565b5083816002019080519060200190610502929190610d1d565b50828160050181905550338160060160006101000a81548173ffffffffffffffffffffffffffffffffffffffff021916908373ffffffffffffffffffffffffffffffffffffffff160217905550338160070160006101000a81548173ffffffffffffffffffffffffffffffffffffffff021916908373ffffffffffffffffffffffffffffffffffffffff16021790555060008160060160146101000a81548160ff021916908315150217905550828160080181905550600180546105c69190611369565b60018190555060019150509392505050565b6000606080600080600080600260008981526020019081526020016000206000015490506000600260008a8152602001908152602001600020600101805461061f906113ee565b80601f016020809104026020016040519081016040528092919081815260200182805461064b906113ee565b80156106985780601f1061066d57610100808354040283529160200191610698565b820191906000526020600020905b81548152906001019060200180831161067b57829003601f168201915b505050505090506000600260008b815260200190815260200160002060020180546106c2906113ee565b80601f01602080910402602001604051908101604052809291908181526020018280546106ee906113ee565b801561073b5780601f106107105761010080835404028352916020019161073b565b820191906000526020600020905b81548152906001019060200180831161071e57829003601f168201915b505050505090506000600260008c81526020019081526020016000206005015490506000600260008d815260200190815260200160002060060160009054906101000a900473ffffffffffffffffffffffffffffffffffffffff1690506000600260008e815260200190815260200160002060060160149054906101000a900460ff1690508585858585859b509b509b509b509b509b5050505050505091939550919395565b60015481565b600080336002600085815260200190815260200160002060070160006101000a81548173ffffffffffffffffffffffffffffffffffffffff021916908373ffffffffffffffffffffffffffffffffffffffff1602179055346002600086815260200190815260200160002060080181905591509150915091565b60003373ffffffffffffffffffffffffffffffffffffffff166002600085815260200190815260200160002060060160009054906101000a900473ffffffffffffffffffffffffffffffffffffffff1673ffffffffffffffffffffffffffffffffffffffff1614610907576040517f08c379a00000000000000000000000000000000000000000000000000000000081526004016108fe9061146c565b60405180910390fd5b6002600084815260200190815260200160002060060160149054906101000a900460ff161561096b576040517f08c379a0000000000000000000000000000000000000000000000000000000008152600401610962906114d8565b60405180910390fd5b42600260008581526020019081526020016000206003018190555081426109929190611369565b600260008581526020019081526020016000206004018190555060016002600085815260200190815260200160002060060160146101000a81548160ff0219169083151502179055506001905092915050565b6002600082815260200190815260200160002060060160149054906101000a900460ff16610a48576040517f08c379a0000000000000000000000000000000000000000000000000000000008152600401610a3f90611544565b60405180910390fd5b3373ffffffffffffffffffffffffffffffffffffffff166002600083815260200190815260200160002060060160009054906101000a900473ffffffffffffffffffffffffffffffffffffffff1673ffffffffffffffffffffffffffffffffffffffff161415610aed576040517f08c379a0000000000000000000000000000000000000000000000000000000008152600401610ae4906115b0565b60405180910390fd5b6002600082815260200190815260200160002060040154421115610b46576040517f08c379a0000000000000000000000000000000000000000000000000000000008152600401610b3d9061161c565b60405180910390fd5b60026000828152602001908152602001600020600501543411610b9e576040517f08c379a0000000000000000000000000000000000000000000000000000000008152600401610b9590611688565b60405180910390fd5b60026000828152602001908152602001600020600801543411610bf6576040517f08c379a0000000000000000000000000000000000000000000000000000000008152600401610bed90611688565b60405180910390fd5b6002600082815260200190815260200160002060070160009054906101000a900473ffffffffffffffffffffffffffffffffffffffff1673ffffffffffffffffffffffffffffffffffffffff166108fc60026000848152602001908152602001600020600801549081150290604051600060405180830381858888f19350505050158015610c88573d6000803e3d6000fd5b50346002600083815260200190815260200160002060080181905550336002600083815260200190815260200160002060070160006101000a81548173ffffffffffffffffffffffffffffffffffffffff021916908373ffffffffffffffffffffffffffffffffffffffff16021790555050565b60008173ffffffffffffffffffffffffffffffffffffffff16319050919050565b828054610d29906113ee565b90600052602060002090601f016020900481019282610d4b5760008555610d92565b82601f10610d6457805160ff1916838001178555610d92565b82800160010185558215610d92579182015b82811115610d91578251825591602001919060010190610d76565b5b509050610d9f9190610da3565b5090565b5b80821115610dbc576000816000905550600101610da4565b5090565b6000604051905090565b600080fd5b600080fd5b6000819050919050565b610de781610dd4565b8114610df257600080fd5b50565b600081359050610e0481610dde565b92915050565b600060208284031215610e2057610e1f610dca565b5b6000610e2e84828501610df5565b91505092915050565b610e4081610dd4565b82525050565b6000602082019050610e5b6000830184610e37565b92915050565b600080fd5b600080fd5b6000601f19601f8301169050919050565b7f4e487b7100000000000000000000000000000000000000000000000000000000600052604160045260246000fd5b610eb482610e6b565b810181811067ffffffffffffffff82111715610ed357610ed2610e7c565b5b80604052505050565b6000610ee6610dc0565b9050610ef28282610eab565b919050565b600067ffffffffffffffff821115610f1257610f11610e7c565b5b610f1b82610e6b565b9050602081019050919050565b82818337600083830152505050565b6000610f4a610f4584610ef7565b610edc565b905082815260208101848484011115610f6657610f65610e66565b5b610f71848285610f28565b509392505050565b600082601f830112610f8e57610f8d610e61565b5b8135610f9e848260208601610f37565b91505092915050565b600080600060608486031215610fc057610fbf610dca565b5b600084013567ffffffffffffffff811115610fde57610fdd610dcf565b5b610fea86828701610f79565b935050602084013567ffffffffffffffff81111561100b5761100a610dcf565b5b61101786828701610f79565b925050604061102886828701610df5565b9150509250925092565b60008115159050919050565b61104781611032565b82525050565b6000602082019050611062600083018461103e565b92915050565b600081519050919050565b600082825260208201905092915050565b60005b838110156110a2578082015181840152602081019050611087565b838111156110b1576000848401525b50505050565b60006110c282611068565b6110cc8185611073565b93506110dc818560208601611084565b6110e581610e6b565b840191505092915050565b600073ffffffffffffffffffffffffffffffffffffffff82169050919050565b600061111b826110f0565b9050919050565b61112b81611110565b82525050565b600060c0820190506111466000830189610e37565b818103602083015261115881886110b7565b9050818103604083015261116c81876110b7565b905061117b6060830186610e37565b6111886080830185611122565b61119560a083018461103e565b979650505050505050565b60006040820190506111b56000830185611122565b6111c26020830184610e37565b9392505050565b600080604083850312156111e0576111df610dca565b5b60006111ee85828601610df5565b92505060206111ff85828601610df5565b9150509250929050565b61121281611110565b811461121d57600080fd5b50565b60008135905061122f81611209565b92915050565b60006020828403121561124b5761124a610dca565b5b600061125984828501611220565b91505092915050565b7f6e6f74696d650000000000000000000000000000000000000000000000000000600082015250565b6000611298600683611073565b91506112a382611262565b602082019050919050565b600060208201905081810360008301526112c78161128b565b9050919050565b7f61756374696f6e206e6f742079657420656e6465640000000000000000000000600082015250565b6000611304601583611073565b915061130f826112ce565b602082019050919050565b60006020820190508181036000830152611333816112f7565b9050919050565b7f4e487b7100000000000000000000000000000000000000000000000000000000600052601160045260246000fd5b600061137482610dd4565b915061137f83610dd4565b9250827fffffffffffffffffffffffffffffffffffffffffffffffffffffffffffffffff038211156113b4576113b361133a565b5b828201905092915050565b7f4e487b7100000000000000000000000000000000000000000000000000000000600052602260045260246000fd5b6000600282049050600182168061140657607f821691505b6020821081141561141a576114196113bf565b5b50919050565b7f6e6f206f77657200000000000000000000000000000000000000000000000000600082015250565b6000611456600783611073565b915061146182611420565b602082019050919050565b6000602082019050818103600083015261148581611449565b9050919050565b7f61756374696f6e20616c72656164792073746172740000000000000000000000600082015250565b60006114c2601583611073565b91506114cd8261148c565b602082019050919050565b600060208201905081810360008301526114f1816114b5565b9050919050565b7f61756374696f6e206e6f74207965742073746172740000000000000000000000600082015250565b600061152e601583611073565b9150611539826114f8565b602082019050919050565b6000602082019050818103600083015261155d81611521565b9050919050565b7f596f752063616e277420796f757273656c660000000000000000000000000000600082015250565b600061159a601283611073565b91506115a582611564565b602082019050919050565b600060208201905081810360008301526115c98161158d565b9050919050565b7f61756374696f6e20656e64656400000000000000000000000000000000000000600082015250565b6000611606600d83611073565b9150611611826115d0565b602082019050919050565b60006020820190508181036000830152611635816115f9565b9050919050565b7f6c657373207468616e2068696768657374206269640000000000000000000000600082015250565b6000611672601583611073565b915061167d8261163c565b602082019050919050565b600060208201905081810360008301526116a181611665565b905091905056fea26469706673582212203f162eaad2ac9535fd0587dfde270e31a7b8573f90757e0862ad8465c55f817f64736f6c634300080a0033",
  "immutableReferences": {},
  "source": "// SPDX-License-Identifier: MIT\r\npragma solidity ^0.8.0;\r\n\r\n//AuctionStore\r\ncontract AuctionStore {\r\n    // enum ProductStatus {\r\n    //     Open, //\r\n    //     Sold, //,\r\n    //     Unsold //\r\n    // }\r\n    //()\r\n    mapping(string => bool) goodsChk;\r\n\r\n    struct Bid {\r\n        address bidder;\r\n        uint256 value;\r\n    }\r\n    uint256 public productIndex;\r\n    // // \r\n    // mapping(address => mapping(uint256 => Product)) stores;\r\n\r\n    //\r\n    struct Product {\r\n        //id\r\n        uint256 id;\r\n        //\r\n        string name;\r\n        //\r\n        string category;\r\n        //\r\n        uint256 auctionStartTime;\r\n        //\r\n        uint256 auctionEndTime;\r\n        //\r\n        uint256 startPrice;\r\n        //\r\n        address ower;\r\n        //\r\n        bool status;\r\n        //()\r\n        address highestBidder;\r\n        //\r\n        uint256 highestprice;\r\n        //\r\n        uint256 totalBidders;\r\n    }\r\n\r\n    //id\r\n    constructor() {\r\n        productIndex = 0;\r\n    }\r\n\r\n    mapping(uint256 => Product) requests;\r\n\r\n    //\r\n    function addProductToStore(\r\n        string memory _name,\r\n        string memory _category,\r\n        uint256 _startPrice\r\n    ) public returns (bool) {\r\n        //ID\r\n        // Product memory products = Product({\r\n        Product storage r = requests[productIndex];\r\n        r.id = productIndex;\r\n        r.name = _name;\r\n        r.category = _category;\r\n        r.startPrice = _startPrice;\r\n        r.ower = msg.sender;\r\n        r.highestBidder = msg.sender;\r\n        r.status = false;\r\n        r.highestprice = _startPrice;\r\n        productIndex = productIndex + 1;\r\n        return true;\r\n    }\r\n\r\n    //ID\r\n    function getProduct(uint256 _productId)\r\n        public\r\n        view\r\n        returns (\r\n            uint256,\r\n            string memory,\r\n            string memory,\r\n            uint256,\r\n            address,\r\n            bool\r\n        )\r\n    {\r\n        //idid\r\n        uint256 idnumber = requests[_productId].id;\r\n        string memory name = requests[_productId].name;\r\n        string memory category = requests[_productId].category;\r\n        // uint256 auctionStartTime = requests[_productId].auctionStartTime;\r\n        // uint256 auctionEndTime = requests[_productId].auctionEndTime;\r\n        uint256 startPrice = requests[_productId].startPrice;\r\n        address ower = requests[_productId].ower;\r\n        bool status = requests[_productId].status;\r\n        return (\r\n            idnumber,\r\n            name,\r\n            category,\r\n            // auctionStartTime,\r\n            // auctionEndTime,\r\n            startPrice,\r\n            ower,\r\n            status\r\n        );\r\n    }\r\n\r\n    //\r\n    function setAuctionStart(uint256 id, uint256 _timeLimit)\r\n        public\r\n        returns (bool)\r\n    {\r\n        //\r\n        //\r\n        //\r\n        require(requests[id].ower == msg.sender, \"no ower\");\r\n        //(flase,)\r\n        require(!requests[id].status, \"auction already start\");\r\n        // beneficiary = payable(address(uint160(msg.sender)));\r\n        //\r\n        requests[id].auctionStartTime = block.timestamp;\r\n        //\r\n        //+\r\n        requests[id].auctionEndTime = block.timestamp + _timeLimit;\r\n        //\r\n        requests[id].status = true;\r\n        //\r\n        // emit AuctionStartEvt(msg.sender);\r\n        return true;\r\n    }\r\n\r\n    //\r\n    function tobid(uint256 id) public payable {\r\n        //,\r\n        //\r\n        require(requests[id].status, \"auction not yet start\");\r\n        //\r\n        require(requests[id].ower != msg.sender, \"You can't yourself\");\r\n        //\r\n        require(\r\n            block.timestamp <= requests[id].auctionEndTime,\r\n            \"auction ended\"\r\n        );\r\n        //\r\n        require(msg.value > requests[id].startPrice, \"less than highest bid\");\r\n        require(msg.value > requests[id].highestprice, \"less than highest bid\");\r\n        payable(requests[id].highestBidder).transfer(requests[id].highestprice);\r\n        requests[id].highestprice = msg.value;\r\n        requests[id].highestBidder = msg.sender;\r\n    }\r\n\r\n    function setAuctionEnd(uint256 id) public {\r\n        //\r\n        require(block.timestamp >= requests[id].auctionStartTime, \"notime\");\r\n        require(requests[id].status = true, \"auction not yet ended\");\r\n        requests[id].status = false;\r\n        requests[id].auctionStartTime = 0;\r\n        requests[id].auctionEndTime = 0;\r\n        requests[id].startPrice = requests[id].highestprice;\r\n        requests[id].ower = requests[id].highestBidder;\r\n    }\r\n\r\n    //\r\n    function getBalance(address addr) public view returns (uint256) {\r\n        return addr.balance;\r\n    }\r\n\r\n    //\r\n    // function getCurrentBalance() public view returns (uint256) {\r\n    //     return address(this).balance;\r\n    // }\r\n\r\n    //\r\n    function queryBalance() public view returns (uint256) {\r\n        return address(this).balance;\r\n    }\r\n\r\n    //\r\n    //1. \r\n    function highestBidderInfo(uint256 id)\r\n        public\r\n        payable\r\n        returns (address, uint256)\r\n    {\r\n        return (\r\n            requests[id].highestBidder = msg.sender,\r\n            requests[id].highestprice = msg.value\r\n        );\r\n    }\r\n\r\n    //2. \r\n    function totalBids(uint256 id) public view returns (uint256) {\r\n        return requests[id].totalBidders;\r\n    }\r\n}\r\n",
  "sourcePath": "D:\\\\JH\\contracts\\Auction.sol",
  "compiler": {
    "name": "solc",
    "version": "0.8.10+commit.fc410830.Emscripten.clang"
  },
  "schemaVersion": "3.4.3",
  "updatedAt": "2021-12-04T00:10:53.466Z",
  "devdoc": {
    "kind": "dev",
    "methods": {},
    "version": 1
  },
  "userdoc": {
    "kind": "user",
    "methods": {},
    "version": 1
  }
}